:020000040800F2
:1000000000500020FD1E0008ED190008F519000839
:10001000FD190008051A00080D1A0008000000006C
:10002000000000000000000000000000151A000899
:10003000211A0008000000002D1A0008391A0008D3
:10004000451F0008451F0008451F0008451F000800
:10005000451F0008451F0008451F0008451F0008F0
:10006000451F0008451F0008451F0008451F0008E0
:10007000451F0008451F0008451F0008451F0008D0
:10008000451F0008451F0008451F0008451F0008C0
:10009000451F0008451F0008451F0008451F0008B0
:1000A000451F0008451F0008451F0008451F0008A0
:1000B000451F0008451F0008451F0008451F000890
:1000C000451F0008451F0008451F0008451F000880
:1000D000451F0008451F0008451F0008451F000870
:1000E000451F0008451F0008451F000800000000CC
:1000F0000000000000000000000000000000000000
:0C01000000000000000000005FF808F1A3
:1001100010B5054C237833B9044B13B10448AFF341
:1001200000800123237010BD80000020000000002B
:100130001850000808B5034B1BB103490348AFF33F
:10014000008008BD00000000840000201850000856
:1001500010F8012B11F8013B012A28BF9A42F7D071
:10016000D01A7047034613F8012B002AFBD1181A46
:100170000138704781F0004102E000BF83F0004386
:1001800030B54FEA41044FEA430594EA050F08BF32
:1001900090EA020F1FBF54EA000C55EA020C7FEAF6
:1001A000645C7FEA655C00F0E2804FEA5454D4EB73
:1001B0005555B8BF6D420CDD2C4480EA020281EA3D
:1001C000030382EA000083EA010180EA020281EA75
:1001D0000303362D88BF30BD11F0004F4FEA0131C7
:1001E0004FF4801C4CEA113102D0404261EB4101D6
:1001F00013F0004F4FEA03334CEA133302D052425C
:1002000063EB430394EA050F00F0A780A4F1010417
:10021000D5F1200E0DDB02FA0EFC22FA05F2801851
:1002200041F1000103FA0EF2801843FA05F3594137
:100230000EE0A5F120050EF1200E012A03FA0EFCB6
:1002400028BF4CF0020C43FA05F3C01851EBE371E0
:1002500001F0004507D54FF0000EDCF1000C7EEBFD
:1002600000006EEB0101B1F5801F1BD3B1F5001F3B
:100270000CD349085FEA30004FEA3C0C04F101045A
:100280004FEA445212F5800F80F09A80BCF1004F83
:1002900008BF5FEA500C50F1000041EB045141EA05
:1002A000050130BD5FEA4C0C404141EB0101013CCE
:1002B00028BFB1F5801FE9D291F0000F04BF0146BD
:1002C0000020B1FA81F308BF2033A3F10B03B3F18F
:1002D00020020CDA0C3208DD02F1140CC2F10C021F
:1002E00001FA0CF021FA02F10CE002F11402D8BF7D
:1002F000C2F1200C01FA02F120FA0CFCDCBF41EA49
:100300000C019040E41AA2BF01EB0451294330BD17
:100310006FEA04041F3C1CDA0C340EDC04F11404F4
:10032000C4F1200220FA04F001FA02F340EA0300CB
:1003300021FA04F345EA030130BDC4F10C04C4F111
:10034000200220FA02F001FA04F340EA03002946F1
:1003500030BD21FA04F0294630BD94F0000F83F43B
:10036000801306BF81F480110134013D4EE77FEA1E
:10037000645C18BF7FEA655C29D094EA050F08BF6A
:1003800090EA020F05D054EA000C04BF194610464B
:1003900030BD91EA030F1EBF0021002030BD5FEA8F
:1003A000545C05D14000494128BF41F0004130BDB7
:1003B00014F580043CBF01F5801130BD01F000450B
:1003C00045F0FE4141F470014FF0000030BD7FEA7E
:1003D000645C1ABF194610467FEA655C1CBF0B4679
:1003E000024650EA013406BF52EA033591EA030F90
:1003F00041F4002130BD00BF90F0000F04BF002188
:10040000704730B54FF4806404F132044FF00005BA
:100410004FF0000150E700BF90F0000F04BF002133
:10042000704730B54FF4806404F1320410F0004599
:1004300048BF40424FF000013EE700BF42004FEA94
:10044000E2014FEA31014FEA02701FBF12F07F4311
:1004500093F07F4F81F06051704732F07F4208BFC8
:10046000704793F07F4F04BF41F40021704730B5CF
:100470004FF4607401F0004521F000411CE700BF1B
:1004800050EA010208BF704730B54FF000050AE09E
:1004900050EA010208BF704730B511F0004502D59F
:1004A000404261EB41014FF4806404F132045FEAA1
:1004B000915C3FF4D8AE4FF003025FEADC0C18BF4A
:1004C00003325FEADC0C18BF033202EBDC02C2F13C
:1004D000200300FA03FC20FA02F001FA03FE40EACE
:1004E0000E0021FA02F11444BDE600BF70B54FF0D2
:1004F000FF0C4CF4E06C1CEA11541DBF1CEA1355B0
:1005000094EA0C0F95EA0C0F00F0DEF82C4481EA17
:10051000030621EA4C5123EA4C5350EA013518BF37
:1005200052EA033541F4801143F4801338D0A0FB24
:1005300002CE4FF00005E1FB02E506F00042E0FBD1
:1005400003E54FF00006E1FB03569CF0000F18BFD7
:100550004EF0010EA4F1FF04B6F5007F64F540747F
:1005600004D25FEA4E0E6D4146EB060642EAC62112
:1005700041EA55514FEAC52040EA5E504FEACE2E7F
:10058000B4F1FD0C88BFBCF5E06F1ED8BEF1004F82
:1005900008BF5FEA500E50F1000041EB045170BDFE
:1005A00006F0004646EA010140EA020081EA030142
:1005B000B4EB5C04C2BFD4EB0C0541EA045170BD3E
:1005C00041F480114FF0000E013C00F3AB8014F1B8
:1005D000360FDEBF002001F0004170BDC4F1000401
:1005E000203C35DA0C341BDC04F11404C4F1200582
:1005F00000FA05F320FA04F001FA05F240EA0200DD
:1006000001F0004221F0004110EBD37021FA04F612
:1006100042EB06015EEA430E08BF20EAD37070BDCC
:10062000C4F10C04C4F1200500FA04F320FA05F02B
:1006300001FA04F240EA020001F0004110EBD3702D
:1006400041F100015EEA430E08BF20EAD37070BD9D
:10065000C4F1200500FA05F24EEA020E20FA04F376
:1006600001FA05F243EA020321FA04F001F0004125
:1006700021FA04F220EA020000EBD3705EEA430E96
:1006800008BF20EAD37070BD94F0000F0FD101F0C5
:100690000046400041EB010111F4801F08BF013CFE
:1006A000F7D041EA060195F0000F18BF704703F03C
:1006B0000046520043EB030313F4801F08BF013DC3
:1006C000F7D043EA0603704794EA0C0F0CEA13557F
:1006D00018BF95EA0C0F0CD050EA410618BF52EA39
:1006E0004306D1D181EA030101F000414FF000003F
:1006F00070BD50EA410606BF1046194652EA43064D
:1007000019D094EA0C0F02D150EA013613D195EAC0
:100710000C0F05D152EA03361CBF104619460AD108
:1007200081EA030101F0004141F0FE4141F4700112
:100730004FF0000070BD41F0FE4141F4780170BD02
:1007400070B54FF0FF0C4CF4E06C1CEA11541DBF67
:100750001CEA135594EA0C0F95EA0C0F00F0A7F869
:10076000A4EB050481EA030E52EA03354FEA013196
:1007700000F088804FEA03334FF0805545EA1313A9
:1007800043EA12634FEA022245EA111545EA106571
:100790004FEA00260EF000419D4208BF964244F108
:1007A000FD0404F5407402D25B084FEA3202B61A27
:1007B00065EB03055B084FEA32024FF480104FF4FB
:1007C000002CB6EB020E75EB030E22BFB61A75466F
:1007D00040EA0C005B084FEA3202B6EB020E75EB02
:1007E000030E22BFB61A754640EA5C005B084FEA6A
:1007F0003202B6EB020E75EB030E22BFB61A754637
:1008000040EA9C005B084FEA3202B6EB020E75EB41
:10081000030E22BFB61A754640EADC0055EA060E02
:1008200018D04FEA051545EA16754FEA06164FEA45
:10083000C30343EA52734FEAC2025FEA1C1CC0D1F1
:1008400011F4801F0BD141EA00014FF000004FF07E
:10085000004CB6E711F4801F04BF01430020B4F13F
:10086000FD0C88BFBCF5E06F3FF6AFAEB5EB030CF7
:1008700004BFB6EB020C5FEA500C50F1000041EBF4
:10088000045170BD0EF0004E4EEA113114EB5C04C1
:10089000C2BFD4EB0C0541EA045170BD41F4801194
:1008A0004FF0000E013C90E645EA060E8DE60CEA9C
:1008B000135594EA0C0F08BF95EA0C0F3FF43BAFB9
:1008C00094EA0C0F0AD150EA01347FF434AF95EA70
:1008D0000C0F7FF425AF104619462CE795EA0C0F54
:1008E00006D152EA03353FF4FDAE1046194622E721
:1008F00050EA410618BF52EA43067FF4C5AE50EAFB
:1009000041047FF40DAF52EA43057FF4EBAE12E7EA
:100910004A0011D212F5001211D20DD56FF478737E
:10092000B3EB62520ED44FEAC12343F0004343EAD3
:10093000505323FA02F070474FF00000704750EA1E
:10094000013002D14FF0FF3070474FF00000704788
:1009500080B584B000AF03460A46FB8013467B7126
:100960000023FB737B795B08DAB2FB880121184610
:1009700001F016F903461A46FB7B1343FB7397F904
:100980000F3018461037BD4680BD000080B584B0DA
:1009900000AF0346FB800023FB730023BB732D23B2
:1009A000BB7311E0BB7B99B2BB7B2D3B2C4AD25C65
:1009B000FB88184601F0F4F803461A46FB7B134304
:1009C000FB73BB7B0133BB73BB7B872BEAD9FB88F3
:1009D000184600F089F803461A46FB7B1343FB7365
:1009E00000237B730BE007F10D02FB8811461846CC
:1009F00000F0AAF803461A46FB7B1343FB737B7B8C
:100A0000002BF0D0FB88184600F02CF803461A465D
:100A1000FB7B1343FB73FB88184600F07DF803460D
:100A20001A46FB7B1343FB73FB88092208211846F7
:100A300001F0B6F803461A46FB7B1343FB73FB88B1
:100A400000220B21184601F0ABF803461A46FB7B47
:100A50001343FB7397F90F3018461037BD4680BD1E
:100A60004050000880B584B000AF0346FB800023EF
:100A7000FB73FB8801228621184601F091F803469A
:100A80001A46FB7B1343FB7397F90F301846103758
:100A9000BD4680BD80B584B000AF03463960FB80A1
:100AA0000023FB7307F10E02FB883021184601F08A
:100AB00005F803461A46FB7B1343FB73BB7B03F02D
:100AC0001003DBB2BB73BB7B1B09DBB2002B0CBF7B
:100AD00001230023DBB21A463B681A7097F90F30E6
:100AE00018461037BD4680BD80B584B000AF0346C0
:100AF000FB800023FB73FB8840228721184601F00E
:100B00004FF803461A46FB7B1343FB7397F90F30EC
:100B100018461037BD4680BD80B584B000AF03468F
:100B2000FB800023FB73FB8800228721184601F01D
:100B300037F803461A46FB7B1343FB7397F90F30D4
:100B400018461037BD4680BD80B584B000AF03465F
:100B50003960FB800023FB7307F10D02FB8811460F
:100B60001846FFF797FF03461A46FB7B1343FB73B8
:100B700007F10E02FB883121184600F09FFF034663
:100B80001A46FB7B1343FB7397F90F30002B0CD1F4
:100B9000BB7B03F001037A7B934203D13B680122C4
:100BA0001A7002E03B6800221A7097F90F3018465D
:100BB0001037BD4680BD80B584B000AF03460A46FD
:100BC000FB801346BB800023FB7307F10C02FB88FC
:100BD0001146184600F02AFA03461A46FB7B1343D7
:100BE000FB73BB89002B01D10123F6E0BB89012BEC
:100BF00040F08280BB88B3F5FA7F6BD0B3F5FA7F03
:100C000077DCC82B57D0C82B73DC642B44D0642B03
:100C10006FDC322B31D0322B6BDC212B20D0212BFF
:100C200067DC0F2B02D0142B0DD062E0FB881D2255
:100C30005E21184600F0D6FFFB8827226121184666
:100C400000F0D0FFC7E0FB8851225E21184600F07B
:100C5000C9FFFB886E226121184600F0C3FFBAE08D
:100C6000FB88D6225E21184600F0BCFFFB886E226E
:100C70006121184600F0B6FFADE0FB884FF4D77253
:100C80005E21184600F0AEFFFB884FF4F47261213C
:100C9000184600F0A7FF9EE0FB8840F2E1225E21AB
:100CA000184600F09FFFFB884FF4627261211846DE
:100CB00000F098FF8FE0FB8840F2E1325E21184699
:100CC00000F090FFFB8840F296426121184600F048
:100CD00089FF80E0FB8840F291525E21184600F0C7
:100CE00081FFFB8840F2C1526121184600F07AFF73
:100CF00071E00123FB736EE0BB88B3F5FA7F58D037
:100D0000B3F5FA7F64DCC82B44D0C82B60DC642BBD
:100D100031D0642B5CDC322B20D0322B58DC142BEE
:100D200002D0212B0DD053E0FB881E225E211846F5
:100D300000F058FFFB8822226121184600F052FF84
:100D400049E0FB8860225E21184600F04BFFFB88DB
:100D50006E226121184600F045FF3CE0FB88AD2281
:100D60005E21184600F03EFFFB88C622612118462E
:100D700000F038FF2FE0FB884FF4E6725E21184642
:100D800000F030FFFB884FF4F5726121184600F047
:100D900029FF20E0FB8840F2D9225E21184600F0AE
:100DA00021FFFB884FF43E726121184600F01AFFC4
:100DB00011E0FB8840F28F425E21184600F012FFDE
:100DC000FB8840F2A4426121184600F00BFF02E0CC
:100DD0000123FB7300BF97F90F3018461037BD464B
:100DE00080BD80B584B000AF03463960FB8000232E
:100DF000FB7307F10C02FB885E21184600F080FEB1
:100E000003461A46FB7B1343FB73BB8940F29152A6
:100E100093425BD040F2915293425CDC40F28F42AD
:100E2000934253D0B3F5926F55DA40F2E1329342D8
:100E300048D040F2E13293424DDC40F2E12293424D
:100E40003CD040F2E122934245DC40F2D922934269
:100E500038D040F2D92293423DDCB3F5E67F2DD065
:100E6000B3F5E67F37DCB3F5D77F23D0B3F5D77F73
:100E700031DCD62B1AD0D62B2DDCAD2B1AD0AD2BD6
:100E800029DC602B12D0602B25DC512B0AD0512B92
:100E900021DC1D2B02D01E2B04D01CE03B680F224E
:100EA0001A801DE03B6814221A8019E03B68212259
:100EB0001A8015E03B6832221A8011E03B686422F8
:100EC0001A800DE03B68C8221A8009E03B684FF4A5
:100ED000FA721A8004E00123FB733B6800221A8037
:100EE00097F90F3018461037BD4680BD80B584B0E5
:100EF00000AF03460A46FB801346BB800023FB730A
:100F000007F10C02FB8811461846FFF76AFF0346FB
:100F10001A46FB7B1343FB7397F90F30002B01D06C
:100F200001237FE0BB88012B02D0022B33D065E088
:100F3000FB8814224B21184600F032FE0346FB7357
:100F4000FB8807226021184600F02AFE0346FB7347
:100F5000FB8805226321184600F022FE0346FB733E
:100F6000FB8838226921184600F01AFE0346FB73FD
:100F7000FB8840F205727821184600F033FE0346E4
:100F8000FB73FB8840F206627A21184600F02AFEC5
:100F90000346FB7335E0FB880A224B21184600F01C
:100FA000FFFD0346FB73FB880F226021184600F00B
:100FB000F7FD0346FB73FB880D226321184600F002
:100FC000EFFD0346FB73FB88B8226921184600F049
:100FD000E7FD0346FB73FB8840F60D727821184647
:100FE00000F000FE0346FB73FB8840F60E627A2198
:100FF000184600F0F7FD0346FB7302E00123FB7384
:1010000000BF97F90F30002B0AD1BA89FB8811462F
:101010001846FFF7D0FD03461A46FB7B1343FB73CC
:1010200097F90F3018461037BD4680BD80B584B0A3
:1010300000AF03463960FB800023FB7307F10E020B
:10104000FB884B21184600F039FD03461A4697F9F4
:101050000F3013435BB2FB73BB7B142B02D13B6895
:1010600001221A80BB7B0A2B02D13B6802221A8024
:1010700097F90F3018461037BD4680BD00000000BC
:1010800080B584B000AF03463960FB800023FB735A
:1010900007F10C02FB88DE21184600F031FD034603
:1010A0001A46FB7B1343FB73BB89C3F309039BB253
:1010B000BB81BB891A463B6802FB03F31846FFF766
:1010C0009BF90BA3D3E90023FFF710FA02460B4666
:1010D00010461946FFF71CFC0246FB886C21184697
:1010E00000F0ACFD97F90F3018461037BD4680BDB3
:1010F000333333333333F13F80B584B000AF03462D
:101100003960FB800023FB730023BB7307F10E02E1
:10111000FB88E521184600F0D1FC03461A46FB7B0C
:101120001343FB73BA7B3B681A7097F90F3018466C
:101130001037BD4680BD80B584B000AF034639602E
:10114000FB800023FB7307F10C02FB8896211846F5
:1011500000F0D6FC03461A46FB7B1343FB73BA89A7
:101160003B681A8097F90F3018461037BD4680BD8E
:1011700080B584B000AF03463960FB800023FB7369
:101180003B68FF221A7007F10E02FB88892118467E
:1011900000F094FC03461A46FB7B1343FB73BB7BB6
:1011A00003F01F03DBB2BB73BB7B172B05D8BB7BE4
:1011B0001A46054B9A5C3B681A7097F90F3018462F
:1011C0001037BD4680BD00BF9C50000880B584B07C
:1011D00000AF03460A46FB801346BB800023FB7327
:1011E000BB889B009BB2BB81BA89FB881E21184635
:1011F00000F0F8FC03461A46FB7B1343FB73FB88A5
:1012000000222021184600F0EDFC03461A46FB7B25
:101210001343FB73FB8800222221184600F0E2FCF6
:1012200003461A46FB7B1343FB7397F90F301846AE
:101230001037BD4680BD000080B584B000AF0346C6
:101240000A46FB801346BB800023FB73FB88002209
:101250001821184600F0C6FC03461A46FB7B1343D0
:10126000FB73FB8800221A21184600F0BBFC0346E2
:101270001A46FB7B1343FB73BB885B020B4A82FB62
:1012800003129211DB17D31A9AB2FB881621184663
:1012900000F0A8FC03461A46FB7B1343FB7397F947
:1012A0000F3018461037BD4680BD00BFD34D6210C9
:1012B00090B585B000AF0446084611461A4623464D
:1012C000FB800346BB800B467B8013467B7000236C
:1012D000FB730023BB7307F10E02FB8846211846FF
:1012E00000F0ECFB03461A46FB7B1343FB73BB7B0E
:1012F00023F06F03DBB2BB73BA7B7B781343DBB2A3
:10130000BB7397F82030002B08D1BA7BFB884621AD
:10131000184600F045FC0346FB730AE0BB7B43F034
:101320004003DAB2FB884621184600F039FC034638
:10133000FB737A88FB887221184600F053FC034641
:101340001A46FB7B1343FB73BA88FB88742118464B
:1013500000F048FC03461A46FB7B1343FB7397F9E6
:101360000F3018461437BD4690BD0000B0B588B0A8
:1013700000AF294B1B681846FEF7F4FE0346013305
:10138000264A136000F0BAFF07F10C0300221A602E
:101390005A609A60DA60224B7B610123BB610023B3
:1013A000BB6007F1080207F10C031146184601F073
:1013B0008DF800237B600023FB6122E000237B602B
:1013C000154B1A68FB69D118144B1A68FB69D31ABC
:1013D000042B28BF04231A463B1D184603F0C0F90E
:1013E000FB6903F1006101F5FE317B6800221C46B8
:1013F000154622462B46022000F010FFFB690433FD
:10140000FB61064B1B68FA699A42D7D300F09CFF38
:1014100000BF2037BD46B0BD0000002038010020CD
:1014200000FC010880B582B000AF104B3B60C822C1
:1014300000210F4803F060F900237B600CE03A685C
:101440007B6813441A467B689B081268084941F878
:1014500023207B6804337B60064B1B687A689A42C2
:10146000EDD300BF00BF0837BD4680BD00FC0108BA
:101470003C0100203801002080B58EB000AF002371
:101480003B603B1D2E220021184603F035F9002356
:101490007B630CE07B6B9B003A4613447A6B9200B3
:1014A0000F490A4412681A607B6B01337B630D4B52
:1014B0001B6803339B087A6B9A42EBD30A4B1A687A
:1014C0003B4611461846FEF743FE0346002B0CBF71
:1014D00001230023DBB218463837BD4680BD00BF6C
:1014E0003C010020380100200000002080B588B0B9
:1014F00000AF00F029FD00F08BF800F027F900F0B4
:10150000CDF800F0F9F80023BB8300237B83002390
:101510007B6007F1080300221A605A609A60DA6063
:101520001423FB83334B1B68324A526891B200226A
:10153000184601F00EFA304B1B682F4A526891B2E0
:101540000022184601F005FA00BF2A4B93E8060076
:10155000542000F0CBFB0346002BF6D100BF264BF6
:1015600093E80600562000F0C1FB0346002BF6D19D
:101570004FF4FA7000F04AFDFFF7F8FEFFF752FF54
:10158000FFF77AFF0346002B06D000224FF40061DC
:101590001A4801F0DEF905E000224FF480511748A7
:1015A00001F0D7F95420FFF79FFA5620FFF79CFA75
:1015B00007F11C03124A06CA542000F02DFC07F163
:1015C0001A03104A06CA562000F026FCBB8B1A46A6
:1015D0007B8B381D0C4903F06FF80346FB83FA8BB5
:1015E000391D6423094802F093FEC82000F00EFD67
:1015F00000BFDDE7040000200C000020000C0140CB
:10160000140000201C00002038500008F0000020CA
:1016100080B590B000AF07F11803282200211846CA
:1016200003F06AF83B1D00221A605A609A60DA6083
:101630001A610123BB614FF48033FB6100233B62DD
:101640000123BB6202237B634FF48033BB634FF4FF
:10165000E013FB6307F11803184602F0F9F903469B
:10166000002B01D000F000F90F237B600223BB6048
:101670000023FB604FF480633B6100237B613B1DD3
:101680000221184602F066FC0346002B01D000F050
:10169000EBF800BF4037BD4680BD000080B500AF0D
:1016A000124B134A1A60114B124A5A600F4B002218
:1016B0009A600E4B0022DA600C4B4FF480421A61A4
:1016C0000A4B00225A61094B00229A61074B002203
:1016D000DA61064B00221A62044801F053F903460E
:1016E000002B01D000F0C0F800BF80BD9C0000209E
:1016F00000540040A086010080B500AF114B124A93
:101700001A60104B4FF4E1325A600E4B00229A607F
:101710000C4B0022DA600B4B00221A61094B0C22A1
:101720005A61084B00229A61064B0022DA61054893
:1017300002F09EFD0346002B01D000F095F800BF9B
:1017400080BD00BFF00000200038014080B588B0A7
:1017500000AF07F1100300221A605A609A60DA6045
:101760003E4B9B693D4A43F0100393613B4B9B69A1
:1017700003F01003FB60FB68384B9B69374A43F06A
:1017800020039361354B9B6903F02003BB60BB686A
:10179000324B9B69314A43F0080393612F4B9B699D
:1017A00003F008037B607B682C4B9B692B4A43F05A
:1017B00004039361294B9B6903F004033B603B687E
:1017C00000224FF40041264801F0C3F801224FF4F3
:1017D000C051244801F0BDF800224FF48071214827
:1017E00001F0B7F84FF480433B6100237B61002395
:1017F000BB6107F110031946194800F00FFF4FF4C1
:1018000000433B6101237B610023BB610223FB6139
:1018100007F110031946124800F000FF4FF4C853B7
:101820003B6101237B610023BB610223FB6107F164
:10183000100319460B4800F0F1FE4FF400733B61B2
:1018400000237B610023BB6107F1100319460548A3
:1018500000F0E4FE00BF2037BD4680BD001002400E
:1018600000100140000C014080B400AF72B600BF10
:1018700000BFFDE780B485B000AF154B9B69144AEB
:1018800043F001039361124B9B6903F00103BB60BA
:10189000BB680F4BDB690E4A43F08053D3610C4B9E
:1018A000DB6903F080537B607B680A4B5B68FB60FD
:1018B000FB6823F0E063FB60FB6843F08063FB6040
:1018C000044AFB68536000BF1437BD4680BC7047B4
:1018D000001002400000014080B588B000AF786081
:1018E00007F1100300221A605A609A60DA607B6880
:1018F0001B68154A934223D1144B9B69134A43F04A
:1019000008039361114B9B6903F00803FB60FB68BC
:10191000C0233B6112237B610223FB6107F11003AB
:1019200019460B4800F07AFE084BDB69074A43F47E
:101930000013D361054BDB6903F40013BB60BB6884
:1019400000BF2037BD4680BD00540040001002405B
:10195000000C014080B588B000AF786007F110033B
:1019600000221A605A609A60DA607B681B681C4A21
:10197000934231D11B4B9B691A4A43F480439361D4
:10198000184B9B6903F48043FB60FB68154B9B6914
:10199000144A43F004039361124B9B6903F0040360
:1019A000BB60BB684FF400733B6102237B61032380
:1019B000FB6107F1100319460B4800F02FFE4FF4AE
:1019C00080633B6100237B610023BB6107F110034F
:1019D0001946054800F022FE00BF2037BD4680BDF5
:1019E00000380140001002400008014080B400AF00
:1019F00000BFFDE780B400AF00BFFDE780B400AFDB
:101A000000BFFDE780B400AF00BFFDE780B400AFCA
:101A100000BFFDE780B400AF00BFBD4680BC70478B
:101A200080B400AF00BFBD4680BC704780B400AF3B
:101A300000BFBD4680BC704780B500AF00F0CAFA59
:101A400000BF80BD80B586B000AF7860144A154BEA
:101A5000D31A7B617B693B61134B1B68002B02D15E
:101A6000114B124A1A60104B1A687B6813443A698A
:101A70009A4207D202F048FE03460C221A604FF049
:101A8000FF3309E0084B1B68FB60074B1A687B6853
:101A90001344054A1360FB6818461837BD4680BDDD
:101AA0000050002000040000040200207803002001
:101AB00080B400AF00BFBD4680BC704780B586B023
:101AC00004AF03463A60FB800B46BB80BA88F988B6
:101AD00014230293012301933B68009310230748CA
:101AE00001F08EF90346002B02D06FF00C0300E0EA
:101AF000002318460837BD4680BD00BF9C0000206B
:101B000080B588B004AF03463A60FB800B46BB80CB
:101B1000BA88F98814230293022301933B68009347
:101B200010230C4801F06CF90346002B02D06FF033
:101B30000C030BE03B681B881BB2FB81FB895BBA83
:101B40009BB21BB29AB23B681A800023184610372A
:101B5000BD4680BD9C00002080B588B004AFBA604F
:101B60007B600346FB810B46BB817B689BB2BA89D5
:101B7000F989142002900193BB6800931023074851
:101B800001F03EF90346002B02D06FF00C0300E099
:101B9000002318461037BD4680BD00BF9C000020C2
:101BA00080B586B004AF0346FB800B46BB8013466E
:101BB000FB70BA88F9881423029301230193FB1C5C
:101BC00000931023064801F021F80346002B02D0B1
:101BD0006FF00C0300E0002318460837BD4680BDB7
:101BE0009C00002080B588B004AF0346FB800B4604
:101BF000BB8013467B807B881BB2FB81FB895BBA71
:101C00009BB21BB29BB27B80BA88F98814230293E3
:101C100002230193BB1C00931023074800F0F6FF3A
:101C20000346002B02D06FF00C0300E0002318469F
:101C30001037BD4680BD00BF9C00002080B588B035
:101C400004AF03463A60FB800B46BB803B68FB60F9
:101C5000FB681BBA3B60BA88F988142302930423FB
:101C600001933B4600931023064800F0CFFF034644
:101C7000002B02D06FF00C0300E000231846103751
:101C8000BD4680BD9C00002080B586B000AF07F146
:101C9000080383E803001346FB710023BB75002390
:101CA000FB75BB68FA6891B2FA79184600F051FEEC
:101CB000FB79002B15D00FE0022000F0A7F907F107
:101CC000160319465220FFF717FA03461A4697F9EA
:101CD000173013435BB2FB75BB7D03F00103002B90
:101CE000EAD0FB7D18461837BD4680BD80B588B068
:101CF00002AF3B1D83E806000346FB7300233B61F4
:101D00000023FB7501223B1D93E80300FFF7BCFF96
:101D100003461A46FB7D1343FB75FB7D002B01D068
:101D2000FB7D75E0042000F071F907F11002042337
:101D300040F20F115220FFF70FFF3B7CEA2B05D139
:101D40007B7CCC2B02D1BB7C102B01D001235FE02C
:101D50005220FEF71BFE03461A4697F9173013432D
:101D60005BB2FB756FF018015220FFF72FFA0346A4
:101D70001A4697F9173013435BB2FB7500215220C6
:101D8000FFF75AFA03461A4697F9173013435BB226
:101D9000FB7502215220FFF7A9F803461A4697F96E
:101DA000173013435BB2FB7514215220FEF703FF7B
:101DB00003461A4697F9173013435BB2FB75192196
:101DC0005220FFF75DF903461A4697F9173013437F
:101DD0005BB2FB7500230093002341F2883241F28D
:101DE00088315220FFF764FA03461A4697F91730F4
:101DF00013435BB2FB75FB7B19465220FEF7A8FD2F
:101E000003461A4697F9173013435BB2FB75FB7D07
:101E100018461837BD4680BD90B589B000AF04465E
:101E2000381D80E806003B602346FB730023FB77E8
:101E300000F0E2F8B86100BF7B68BA6892B2114660
:101E4000184600F06FFD0346002B06D100F0D4F8D1
:101E50000246BB69D31A192BEED97B68BA6892B2D5
:101E60001146184600F05EFD0346002B39D0FB7B7F
:101E70009BB207F1170211461846FFF779F903469E
:101E80001A4697F91F3013435BB2FB77FB7B9BB27B
:101E900039681846FFF74FF903461A4697F91F307D
:101EA00013435BB2FB77FB7B9BB21846FEF7DAFD70
:101EB00003461A4697F91F3013435BB2FB77FB7F4B
:101EC000002B07D1FB7D022B04D83B681A880A4BF4
:101ED0001A800CE0084B1A883B681A800123FB77B4
:101EE00005E0054B1A883B681A800123FB77FB7FCE
:101EF00018462437BD4690BD08020020FFF7D8FDE4
:101F00000B480C490C4A002302E0D458C450043357
:101F1000C4188C42F9D3094A094C002301E013602C
:101F20000432A242FBD302F0F5FBFFF7DFFA704761
:101F300000000020800000202451000880000020C4
:101F400078030020FEE7000080B500AF084B1B6857
:101F5000074A43F010031360032000F02BF90F2011
:101F600000F008F8FFF786FC0023184680BD00BF8C
:101F70000020024080B582B000AF7860124B1A6832
:101F8000124B1B7819464FF47A73B3FBF1F3B2FB93
:101F9000F3F3184600F035F90346002B01D0012376
:101FA0000EE07B680F2B0AD8002279684FF0FF30D3
:101FB00000F00BF9064A7B681360002300E0012360
:101FC00018460837BD4680BD240000202C000020A4
:101FD0002800002080B400AF054B1B781A46054B43
:101FE0001B681344034A136000BFBD4680BC7047A2
:101FF0002C0000200C02002080B400AF024B1B68B4
:102000001846BD4680BC70470C02002080B584B0E5
:1020100000AF7860FFF7F0FFB8607B68FB60FB689B
:10202000B3F1FF3F05D00A4B1B781A46FB681344F7
:10203000FB6000BFFFF7E0FF0246BB68D31AFA68F7
:102040009A42F7D800BF00BF1037BD4680BD00BF21
:102050002C00002080B485B000AF78607B6803F06E
:102060000703FB600C4BDB68BB60BA684FF6FF03ED
:102070001340BB60FB681A02BB68134343F0BF63A5
:1020800043F40033BB60044ABB68D36000BF14371D
:10209000BD4680BC704700BF00ED00E080B400AFDB
:1020A000044BDB681B0A03F007031846BD4680BCDF
:1020B000704700BF00ED00E080B483B000AF03467E
:1020C0003960FB7197F90730002B0ADB3B68DAB205
:1020D0000C4997F907301201D2B20B4483F8002360
:1020E0000AE03B68DAB20849FB7903F00F03043BCE
:1020F0001201D2B20B441A7600BF0C37BD4680BC29
:10210000704700BF00E100E000ED00E080B489B05E
:1021100000AFF860B9607A60FB6803F00703FB6109
:10212000FB69C3F10703042B28BF0423BB61FB69D0
:102130000433062B02D9FB69033B00E000237B61DB
:102140004FF0FF32BB6902FA03F3DA43BB681A406F
:102150007B699A404FF0FF317B6901FA03F3D94361
:102160007B680B40134318462437BD4680BC70473C
:1021700080B582B000AF78607B68013BB3F1807FAF
:1021800001D301230FE00A4A7B68013B53600F2112
:102190004FF0FF30FFF790FF054B00229A60044B91
:1021A00007221A60002318460837BD4680BD00BFCD
:1021B00010E000E080B582B000AF78607868FFF78B
:1021C00049FF00BF0837BD4680BD80B586B000AF6F
:1021D0000346B9607A60FB7300237B61FFF75EFF03
:1021E00078617A68B9687869FFF790FF024697F9D5
:1021F0000F3011461846FFF75FFF00BF1837BD4686
:1022000080BD80B582B000AF78607868FFF7B0FF1E
:10221000034618460837BD4680BD0000F0B587B0BC
:1022200000AFF860B960C7E900230123FB75002304
:10223000BB7500237B752F4B1B7E012B01D1022325
:1022400054E02C4B01221A764CF2503000F0A8F8E2
:102250000346FB75FB7D002B44D1FB68012B02D1AB
:1022600001237B7507E0FB68022B02D102237B75FB
:1022700001E004237B750023BB752DE0BB7D5A0074
:10228000BB6802EB030CBB7D1901D7E90023C1F148
:102290002006A1F1200022FA01F403FA06F63443E5
:1022A00023FA00F0044323FA01F5A3B2194660466D
:1022B00000F05AF84CF2503000F072F80346FB750B
:1022C0000D4B1B690C4A23F001031361FB7D002BAE
:1022D00007D1BB7D0133BB75BA7D7B7D9A42CDD3DF
:1022E00000E000BF034B00221A76FB7D18461C3726
:1022F000BD46F0BD100200200020024080B483B033
:1023000000AF0023FB710D4B1B6903F08003002B12
:102310000DD00A4B0A4A5A60084B0A4A5A60074BCA
:102320001B6903F08003002B01D00123FB71FB79B3
:1023300018460C37BD4680BC704700BF00200240E5
:1023400023016745AB89EFCD80B400AF054B1B6916
:10235000044A43F08003136100231846BD4680BC45
:10236000704700BF0020024080B483B000AF7860A7
:102370000B467B80084B0022DA61084B1B69074A39
:1023800043F0010313617B687A881A8000BF0C3721
:10239000BD4680BC704700BF1002002000200240F4
:1023A00080B584B000AF7860FFF726FEF86010E0DB
:1023B0007B68B3F1FF3F0CD07B68002B07D0FFF7A1
:1023C0001BFE0246FB68D31A7A689A4201D20323A5
:1023D00025E0154BDB6803F00103002BE8D1124B1D
:1023E000DB6803F02003002B02D00F4B2022DA60C1
:1023F0000D4BDB6803F01003002B0BD10A4BDB699C
:1024000003F00103002B05D1074BDB6803F0040345
:10241000002B03D000F00AF8012300E00023184647
:102420001037BD4680BD00BF0020024080B483B09D
:1024300000AF00237B60234BDB6803F01003002B0D
:1024400009D0214BDB6943F002031F4AD3617B684B
:1024500043F010037B601B4BDB6803F00403002B8D
:1024600009D0194BDB6943F00103174AD3617B683C
:1024700043F004037B60134BDB6903F00103002B83
:102480000BD0114BDB6943F004030F4AD3610D4BB2
:10249000DB690C4A23F00103D3617B6840F201122F
:1024A000934206D1074BDB69064A23F00103D3614F
:1024B00002E0044A7B68D36000BF0C37BD4680BC95
:1024C000704700BF002002401002002080B584B099
:1024D00000AF786039600123FB730023BB602F4B92
:1024E0001B7E012B01D1022353E02C4B01221A76D3
:1024F0007B681B68022B16D14CF25030FFF750FF5F
:102500000346002B41D1012000F04CF84CF2503032
:10251000FFF746FF0346FB73214B1B69204A23F05C
:102520000403136131E04CF25030FFF739FF0346EA
:10253000002B2AD13B684FF0FF321A607B689B6802
:10254000BB6019E0B86800F049F84CF25030FFF772
:1025500027FF0346FB73124B1B69114A23F002034A
:102560001361FB7B002B03D03B68BA681A600CE058
:10257000BB6803F58063BB607B68DB689A027B689D
:102580009B681344BA689A42DCD3044B00221A7643
:10259000FB7B18461037BD4680BD00BF10020020EF
:1025A0000020024080B483B000AF7860094B002265
:1025B000DA61094B1B69084A43F004031361064BB7
:1025C0001B69054A43F04003136100BF0C37BD4649
:1025D00080BC7047100200200020024080B483B00D
:1025E00000AF78600B4B0022DA610B4B1B690A4A83
:1025F00043F002031361084A7B685361064B1B6971
:10260000054A43F04003136100BF0C37BD4680BC50
:10261000704700BF100200200020024080B48BB041
:1026200000AF7860396000237B6200233B6269E180
:1026300001227B6A02FA03F3FB613B681B68FA69BB
:102640001340BB61BA69FB699A4240F058813B680C
:102650005B689A4A93425ED0984A934275D8984AEA
:10266000934258D0964A93426FD8964A934252D09A
:10267000944A934269D8944A93424CD0924A9342E6
:1026800063D8924A934246D0904A93425DD8122B27
:102690002AD8122B59D801A252F823F01727000884
:1026A000F126000803270008452700084B270008EB
:1026B0004B2700084B2700084B2700084B27000832
:1026C0004B2700084B2700084B2700084B27000822
:1026D0004B2700084B2700084B2700084B27000812
:1026E000F92600080D270008794A934213D02CE000
:1026F0003B68DB683B6229E03B68DB6804333B6294
:1027000024E03B68DB6808333B621FE03B68DB6822
:102710000C333B621AE03B689B68002B02D1042318
:102720003B6213E03B689B68012B05D108233B62A9
:102730007B68FA691A6109E008233B627B68FA69E1
:102740005A6103E000233B6200E000BFBB69FF2B3E
:1027500001D87B6801E07B6804337B61BB69FF2B98
:1027600002D87B6A9B0002E07B6A083B9B003B61CE
:102770007B691A680F213B6901FA03F3DB431A40B6
:10278000396A3B6901FA03F31A437B691A603B68B3
:102790005B6803F08053002B00F0B1804D4B9B69C8
:1027A0004C4A43F0010393614A4B9B6903F00103D8
:1027B000BB60BB68484A7B6A9B08023352F82330EF
:1027C000FB607B6A03F003039B000F2202FA03F312
:1027D000DB43FA681340FB607B68404A934213D0A6
:1027E0007B683F4A93420DD07B683E4A934207D0B4
:1027F0007B683D4A934201D1032306E0042304E0B1
:10280000022302E0012300E000237A6A02F00302BF
:1028100092009340FA681343FB602F497B6A9B0840
:102820000233FA6841F823203B685B6803F48013A5
:10283000002B06D02D4B9A682C49BB6913438B6043
:1028400006E02A4B9A68BB69DB43284913408B603A
:102850003B685B6803F40013002B06D0234BDA6857
:102860002249BB691343CB6006E0204BDA68BB69A1
:10287000DB431E491340CB603B685B6803F40033C5
:10288000002B06D0194B5A681849BB6913434B609B
:1028900006E0164B5A68BB69DB43144913404B6092
:1028A0003B685B6803F48033002B21D00F4B1A6820
:1028B0000E49BB6913430B6021E000BF00003210DA
:1028C0000000311000002210000021100000121042
:1028D00000001110001002400000014000080140FB
:1028E000000C0140001001400014014000040140B0
:1028F0000B4B1A68BB69DB43094913400B607B6AC9
:1029000001337B623B681A687B6A22FA03F3002B6F
:102910007FF48EAE00BF00BF2C37BD4680BC704731
:102920000004014080B485B000AF78600B467B8026
:102930007B689A687B881340002B02D00123FB73CD
:1029400001E00023FB73FB7B18461437BD4680BCB7
:10295000704780B483B000AF78600B467B8013462D
:102960007B707B78002B03D07A887B681A6103E048
:102970007B881A047B681A6100BF0C37BD4680BC97
:102980007047000080B584B000AF78607B68002B92
:1029900001D101232BE17B6893F83D30DBB2002BA2
:1029A00006D17B68002283F83C207868FEF794FF0C
:1029B0007B68242283F83D207B681B681A687B684B
:1029C0001B6822F001021A607B681B681A687B682A
:1029D0001B6842F400421A607B681B681A687B68B7
:1029E0001B6822F400421A6001F0FCFBF8607B686F
:1029F0005B68814A934207D8FB68804A934294BF40
:102A000001230023DBB206E0FB687D4A934294BFBA
:102A100001230023DBB2002B01D00123E7E0FB6898
:102A2000784AA2FB03239B0CBB607B681B685B6836
:102A300023F03F017B681B68BA680A435A607B68D1
:102A40001B681B6A23F03F017B685B686A4A9342FC
:102A500002D8BB68013309E0BB684FF4967202FBF1
:102A600003F3694AA2FB03239B0901337A681268C6
:102A70000B4313627B681B68DB6923F44F4222F02F
:102A8000FF027B685B685C498B4219D8FB68591E62
:102A90007B685B685B00B1FBF3F3591C40F6FC7389
:102AA0000B40002B0AD0FB68591E7B685B685B00FB
:102AB000B1FBF3F30133C3F30B0351E004234FE005
:102AC0007B689B68002B11D1FB68581E7B68596896
:102AD0000B465B000B44B0FBF3F30133C3F30B0372
:102AE000002B0CBF01230023DBB212E0FB68581E51
:102AF0007B6859680B469B000B4499000B44B0FB64
:102B0000F3F30133C3F30B03002B0CBF01230023AA
:102B1000DBB2002B01D0012322E07B689B68002BF5
:102B20000ED1FB68581E7B6859680B465B000B444E
:102B3000B0FBF3F30133C3F30B0343F400430FE0A3
:102B4000FB68581E7B6859680B469B000B44990034
:102B50000B44B0FBF3F30133C3F30B0343F44043E3
:102B6000796809681343CB617B681B681B6823F095
:102B7000C0017B68DA697B681B6A1A437B681B6843
:102B80000A431A607B681B689B6823F4034323F0A5
:102B9000FF037A6811697A68D26811437A6812680B
:102BA0000B4393607B681B68DB6823F0FF017B6845
:102BB0005A697B689B691A437B681B680A43DA6021
:102BC0007B681B681A687B681B6842F001021A6008
:102BD0007B6800221A647B68202283F83D207B6892
:102BE00000221A637B68002283F83E2000231846E7
:102BF0001037BD4680BD00BFA08601007F841E0047
:102C0000FF083D0083DE1B43D34D621080B588B0C2
:102C100002AFF860084611461A4603467B810B4610
:102C20003B811346FB80FFF7E7F97861FB6893F877
:102C30003D30DBB2202B40F0D9807B690093192313
:102C400001226D49F86800F0CDFC0346002B01D04D
:102C50000223CCE0FB6893F83C30012B01D1022326
:102C6000C5E0FB68012283F83C20FB681B681B68F9
:102C700003F00103012B07D0FB681B681A68FB688F
:102C80001B6842F001021A60FB681B681A68FB6847
:102C90001B6822F400621A60FB68212283F83D2041
:102CA000FB68402283F83E20FB6800221A64FB6820
:102CB0003A6A5A62FB68BA8C5A85FB685B8D9AB295
:102CC000FB681A85FB684D4ADA62F8883A89798987
:102CD0007B690193BB6A00930346F86800F004FB2C
:102CE0000346002B52D0012381E07A69B96AF86863
:102CF00000F092FD0346002B0DD0FB681B6C042BEB
:102D000007D1FB681B681A68FB681B6842F40072F5
:102D10001A6001236BE0FB685B6A1A78FB681B682A
:102D20001A61FB685B6A5A1CFB685A62FB681B8D60
:102D3000013B9AB2FB681A85FB685B8D9BB2013B35
:102D40009AB2FB685A85FB681B685B6903F0040351
:102D5000042B1BD1FB681B8D002B17D0FB685B6A13
:102D60001A78FB681B681A61FB685B6A5A1CFB686F
:102D70005A62FB681B8D013B9AB2FB681A85FB689F
:102D80005B8D9BB2013B9AB2FB685A85FB681B8D39
:102D9000002BAAD17A69B96AF86800F085FD03466C
:102DA000002B0DD0FB681B6C042B07D1FB681B6844
:102DB0001A68FB681B6842F400721A60012316E06F
:102DC000FB681B681A68FB681B6842F400721A6093
:102DD000FB68202283F83D20FB68002283F83E2018
:102DE000FB68002283F83C20002300E00223184601
:102DF0001837BD4680BD00BF020010000000FFFF75
:102E000080B58CB002AFF860084611461A460346FA
:102E10007B810B463B811346FB8000233B62FFF71F
:102E2000EBF87862FB6893F83D30DBB2202B40F082
:102E300050827B6A0093192301228249F86800F0CE
:102E4000D1FB0346002B01D0022343E2FB6893F839
:102E50003C30012B01D102233CE2FB68012283F8C4
:102E60003C20FB681B681B6803F00103012B07D0A3
:102E7000FB681B681A68FB681B6842F001021A6055
:102E8000FB681B681A68FB681B6822F400621A6002
:102E9000FB68222283F83D20FB68402283F83E2015
:102EA000FB6800221A64FB683A6B5A62FB68BA8EB0
:102EB0005A85FB685B8D9AB2FB681A85FB68624A8B
:102EC000DA62F8883A8979897B6A0193BB6B00934F
:102ED0000346F86800F09EFA0346002B01D0012358
:102EE000F8E1FB681B8D002B13D10023FB61FB680D
:102EF0001B685B69FB61FB681B689B69FB61FB6985
:102F0000FB681B681A68FB681B6842F400721A6051
:102F1000CCE1FB681B8D012B1ED1FB681B681A6876
:102F2000FB681B6822F480621A6072B600BF00233F
:102F3000BB61FB681B685B69BB61FB681B689B69C5
:102F4000BB61BB69FB681B681A68FB681B6842F4BD
:102F500000721A6062B635E0FB681B8D022B1ED131
:102F6000FB681B681A68FB681B6842F400621A6001
:102F700072B600BF00237B61FB681B685B697B61E5
:102F8000FB681B689B697B617B69FB681B681A682F
:102F9000FB681B6822F480621A6062B612E0FB686C
:102FA0001B681A68FB681B6842F480621A60002381
:102FB0003B61FB681B685B693B61FB681B689B6945
:102FC0003B613B6972E1FB681B8D032B00F21F81A3
:102FD000FB681B8D012B23D17A6AB96BF86800F06E
:102FE000ABFC0346002B01D0012373E1FB681B6897
:102FF0001A69FB685B6AD2B21A70FB685B6A5A1C7A
:10300000FB685A62FB681B8D013B9AB2FB681A850C
:10301000FB685B8D9BB2013B9AB2FB685A8545E128
:10302000FB681B8D022B52D17B6A0093BB6B002285
:103030000649F86800F0D6FA0346002B08D00123B1
:1030400048E100BF020010000000FFFF0400010083
:1030500072B600BFFB681B681A68FB681B6842F405
:1030600000721A60FB681B681A69FB685B6AD2B25F
:103070001A70FB685B6A5A1CFB685A62FB681B8DFE
:10308000013B9AB2FB681A85FB685B8D9BB2013BE2
:103090009AB2FB685A8562B600BFFB681B681A6962
:1030A000FB685B6AD2B21A70FB685B6A5A1CFB68E9
:1030B0005A62FB681B8D013B9AB2FB681A85FB685C
:1030C0005B8D9BB2013B9AB2FB685A85EEE07B6A4E
:1030D0000093BB6B00228149F86800F083FA034635
:1030E000002B01D00123F5E0FB681B681A68FB6820
:1030F0001B6822F480621A6072B600BFFB681B680E
:103100001A69FB685B6AD2B21A70FB685B6A5A1C68
:10311000FB685A62FB681B8D013B9AB2FB681A85FB
:10312000FB685B8D9BB2013B9AB2FB685A856C4B86
:103130001B68DB086B4AA2FB03231A0A13469B0099
:103140001344DA00D31A3B623B6A013B3B623B6AA1
:10315000002B18D1FB6800221A63FB68202283F839
:103160003D20FB68002283F83E20FB681B6C43F087
:103170002002FB681A6462B600BFFB68002283F875
:103180003C200123A6E0FB681B685B6903F0040395
:10319000042BD9D1FB681B681A68FB681B6842F4D2
:1031A00000721A60FB681B681A69FB685B6AD2B21E
:1031B0001A70FB685B6A5A1CFB685A62FB681B8DBD
:1031C000013B9AB2FB681A85FB685B8D9BB2013BA1
:1031D0009AB2FB685A8562B600BFFB681B681A6921
:1031E000FB685B6AD2B21A70FB685B6A5A1CFB68A8
:1031F0005A62FB681B8D013B9AB2FB681A85FB681B
:103200005B8D9BB2013B9AB2FB685A854EE07A6AAD
:10321000B96BF86800F090FB0346002B01D0012346
:1032200058E0FB681B681A69FB685B6AD2B21A70C7
:10323000FB685B6A5A1CFB685A62FB681B8D013B8A
:103240009AB2FB681A85FB685B8D9BB2013B9AB210
:10325000FB685A85FB681B685B6903F00403042B59
:1032600024D1FB681B8D032B07D1FB681B681A68F0
:10327000FB681B6822F480621A60FB681B681A698D
:10328000FB685B6AD2B21A70FB685B6A5A1CFB6807
:103290005A62FB681B8D013B9AB2FB681A85FB687A
:1032A0005B8D9BB2013B9AB2FB685A85FB681B8D14
:1032B000002B7FF488AEFB68202283F83D20FB685A
:1032C000002283F83E20FB68002283F83C20002384
:1032D00000E0022318462837BD4680BD04000100E7
:1032E0002400002089B5F81480B588B002AFF860DA
:1032F000084611461A4603467B810B463B8113461E
:10330000FB80FB681B681A68FB681B6842F48072CC
:103310001A607B6A00933B6A00224FF00111F86843
:1033200000F060F90346002B0DD0FB681B681B689A
:1033300003F48073B3F5807F03D1FB684FF4007210
:103340001A6403235FE07B89DBB21A46FB681B68C3
:1033500002F0FE021A617B6A3A6A2D49F86800F0B1
:10336000BBF90346002B01D001234CE000237B6115
:10337000FB681B685B697B61FB681B689B697B6101
:103380007B697A6A396AF86800F046FA0346002BCE
:103390000DD0FB681B6C042B07D1FB681B681A68F7
:1033A000FB681B6842F400721A6001232BE0FB8863
:1033B000012B05D13B89DAB2FB681B681A6121E059
:1033C0003B891B0A9BB2DAB2FB681B681A617A6AF6
:1033D000396AF86800F020FA0346002B0DD0FB682C
:1033E0001B6C042B07D1FB681B681A68FB681B6801
:1033F00042F400721A60012305E03B89DAB2FB68EF
:103400001B681A61002318461837BD4680BD00BFEF
:103410000200010080B588B002AFF860084611468E
:103420001A4603467B810B463B811346FB80FB68B3
:103430001B681A68FB681B6842F480621A60FB68AC
:103440001B681A68FB681B6842F480721A607B6A0A
:1034500000933B6A00224FF00111F86800F0C2F8B7
:103460000346002B0DD0FB681B681B6803F48073B8
:10347000B3F5807F03D1FB684FF400721A64032315
:10348000AAE07B89DBB21A46FB681B6802F0FE02E9
:103490001A617B6A3A6A5249F86800F01DF90346DE
:1034A000002B01D0012397E000237B61FB681B68A0
:1034B0005B697B61FB681B689B697B617B697A6ADE
:1034C000396AF86800F0A8F90346002B0DD0FB68B4
:1034D0001B6C042B07D1FB681B681A68FB681B6810
:1034E00042F400721A60012376E0FB88012B05D1BB
:1034F0003B89DAB2FB681B681A6121E03B891B0A31
:103500009BB2DAB2FB681B681A617A6A396AF8689A
:1035100000F082F90346002B0DD0FB681B6C042BD6
:1035200007D1FB681B681A68FB681B6842F40072CD
:103530001A60012350E03B89DAB2FB681B681A610C
:103540007A6A396AF86800F067F90346002B0DD0F3
:10355000FB681B6C042B07D1FB681B681A68FB68AF
:103560001B6842F400721A60012335E0FB681B6897
:103570001A68FB681B6842F480721A607B6A0093C9
:103580003B6A00224FF00111F86800F02BF8034667
:10359000002B0DD0FB681B681B6803F48073B3F528
:1035A000807F03D1FB684FF400721A64032313E099
:1035B0007B89DBB243F00103DAB2FB681B681A6156
:1035C0007B6A3A6A0649F86800F086F80346002BE1
:1035D00001D0012300E0002318461837BD4680BD06
:1035E0000200010080B584B000AFF860B9603B60B4
:1035F0001346FB7148E03B68B3F1FF3F44D0FEF750
:10360000FBFC0246BB69D31A3A689A4202D33B6874
:10361000002B39D1BB681B0CDBB2012B0DD1FB6831
:103620001B685B69DA43BB6813409BB2002B0CBF7D
:1036300001230023DBB21A460CE0FB681B689B6980
:10364000DA43BB6813409BB2002B0CBF012300235D
:10365000DBB21A46FB799A4216D1FB6800221A6344
:10366000FB68202283F83D20FB68002283F83E207F
:10367000FB681B6C43F02002FB681A64FB680022A5
:1036800083F83C20012323E0BB681B0CDBB2012B39
:103690000DD1FB681B685B69DA43BB6813409BB2C2
:1036A000002B0CBF01230023DBB21A460CE0FB68A1
:1036B0001B689B69DA43BB6813409BB2002B0CBFAD
:1036C00001230023DBB21A46FB799A4293D00023F0
:1036D00018461037BD4680BD80B584B000AFF86095
:1036E000B9607A603B6071E0FB681B685B6903F45A
:1036F0008063B3F5806F23D1FB681B681A68FB6891
:103700001B6842F400721A60FB681B686FF48062E9
:103710005A61FB6800221A63FB68202283F83D206F
:10372000FB68002283F83E20FB681B6C43F0040218
:10373000FB681A64FB68002283F83C20012367E0E1
:103740007B68B3F1FF3F41D0FEF756FC02463B6871
:10375000D31A7A689A4202D37B68002B36D1BB68B1
:103760001B0CDBB2012B0CD1FB681B685B69DA43D5
:10377000BB6813409BB2002B14BF01230023DBB2B4
:103780000BE0FB681B689B69DA43BB6813409BB284
:10379000002B14BF01230023DBB2002B16D0FB68E3
:1037A00000221A63FB68202283F83D20FB68002278
:1037B00083F83E20FB681B6C43F02002FB681A6410
:1037C000FB68002283F83C20012321E0BB681B0C2E
:1037D000DBB2012B0CD1FB681B685B69DA43BB6869
:1037E00013409BB2002B14BF01230023DBB20BE07C
:1037F000FB681B689B69DA43BB6813409BB2002BD4
:1038000014BF01230023DBB2002B7FF46DAF002334
:1038100018461037BD4680BD80B584B000AFF86053
:10382000B9607A6034E0F86800F0E3F80346002BF2
:1038300001D0012334E0BB68B3F1FF3F28D0FEF78D
:10384000DBFB02467B68D31ABA689A4202D3BB6894
:10385000002B1DD1FB681B685B6903F08003802B84
:1038600016D0FB6800221A63FB68202283F83D20F3
:10387000FB68002283F83E20FB681B6C43F02002AB
:10388000FB681A64FB68002283F83C20012307E0F0
:10389000FB681B685B6903F08003802BC3D10023A6
:1038A00018461037BD4680BD80B584B000AFF860C3
:1038B000B9607A6034E0F86800F09BF80346002BAA
:1038C00001D0012334E0BB68B3F1FF3F28D0FEF7FD
:1038D00093FB02467B68D31ABA689A4202D3BB684C
:1038E000002B1DD1FB681B685B6903F00403042BEC
:1038F00016D0FB6800221A63FB68202283F83D2063
:10390000FB68002283F83E20FB681B6C43F020021A
:10391000FB681A64FB68002283F83C20012307E05F
:10392000FB681B685B6903F00403042BC3D100230D
:1039300018461037BD4680BD80B584B000AFF86032
:10394000B9607A6049E0FB681B685B6903F01003AB
:10395000102B19D1FB681B686FF010025A61FB68CD
:1039600000221A63FB68202283F83D20FB680022B6
:1039700083F83E20FB681A6CFB681A64FB6800221F
:1039800083F83C20012330E0FEF736FB02467B68DB
:10399000D31ABA689A4202D3BB68002B1DD1FB68C8
:1039A0001B685B6903F04003402B16D0FB680022C4
:1039B0001A63FB68202283F83D20FB68002283F80D
:1039C0003E20FB681B6C43F02002FB681A64FB6816
:1039D000002283F83C20012307E0FB681B685B6939
:1039E00003F04003402BAED1002318461037BD46EC
:1039F00080BD80B483B000AF78607B681B685B6972
:103A000003F48063B3F5806F1BD17B681B686FF490
:103A100080625A617B6800221A637B68202283F8E7
:103A20003D207B68002283F83E207B681B6C43F0BE
:103A300004027B681A647B68002283F83C2001231F
:103A400000E0002318460C37BD4680BC70470000DC
:103A500080B586B000AF78607B68002B01D1012370
:103A600072E27B681B6803F00103002B00F0878083
:103A7000924B5B6803F00C03042B0CD08F4B5B68FC
:103A800003F00C03082B12D18C4B5B6803F48033DA
:103A9000B3F5803F0BD1894B1B6803F40033002B37
:103AA0006CD07B685B68002B68D101234CE27B689B
:103AB0005B68B3F5803F06D1804B1B687F4A43F4B7
:103AC000803313602EE07B685B68002B0CD17B4B4E
:103AD0001B687A4A23F480331360784B1B68774A5B
:103AE00023F4802313601DE07B685B68B3F5A02F8F
:103AF0000CD1724B1B68714A43F4802313606F4BE7
:103B00001B686E4A43F4803313600BE06B4B1B68F9
:103B10006A4A23F480331360684B1B68674A23F4B6
:103B2000802313607B685B68002B13D0FEF764FA78
:103B3000386108E0FEF760FA02463B69D31A642B4D
:103B400001D9032300E25D4B1B6803F40033002B13
:103B5000F0D014E0FEF750FA386108E0FEF74CFAB6
:103B600002463B69D31A642B01D90323ECE1534B82
:103B70001B6803F40033002BF0D100E000BF7B682A
:103B80001B6803F00203002B63D04C4B5B6803F00F
:103B90000C03002B0BD0494B5B6803F00C03082B84
:103BA0001CD1464B5B6803F48033002B16D1434B8A
:103BB0001B6803F00203002B05D07B681B69012BF7
:103BC00001D00123C0E13D4B1B6823F0F8027B6864
:103BD0005B69DB00394913430B603AE07B681B6982
:103BE000002B20D0364B01221A60FEF705FA38610F
:103BF00008E0FEF701FA02463B69D31A022B01D90D
:103C00000323A1E12D4B1B6803F00203002BF0D02E
:103C10002A4B1B6823F0F8027B685B69DB002749AD
:103C200013430B6015E0264B00221A60FEF7E4F9FF
:103C3000386108E0FEF7E0F902463B69D31A022B2F
:103C400001D9032380E11D4B1B6803F00203002B05
:103C5000F0D17B681B6803F00803002B3AD07B6827
:103C60009B69002B19D0174B01221A60FEF7C4F98B
:103C7000386108E0FEF7C0F902463B69D31A022B0F
:103C800001D9032360E10D4B5B6A03F00203002BB3
:103C9000F0D0012000F0CEFA1CE00A4B00221A609E
:103CA000FEF7AAF938610FE0FEF7A6F902463B6974
:103CB000D31A022B08D9032346E100BF00100240AB
:103CC0000000424280044242924B5B6A03F00203CE
:103CD000002BE9D17B681B6803F00403002B00F084
:103CE000A6800023FB758B4BDB6903F08053002B10
:103CF0000DD1884BDB69874A43F08053D361854BF4
:103D0000DB6903F08053BB60BB680123FB75824B0A
:103D10001B6803F48073002B18D17F4B1B687E4A0D
:103D200043F480731360FEF767F9386108E0FEF72B
:103D300063F902463B69D31A642B01D9032303E1DB
:103D4000754B1B6803F48073002BF0D07B68DB6835
:103D5000012B06D16F4B1B6A6E4A43F001031362BD
:103D60002DE07B68DB68002B0CD16A4B1B6A694A2B
:103D700023F001031362674B1B6A664A23F00403B6
:103D800013621CE07B68DB68052B0CD1614B1B6A5E
:103D9000604A43F0040313625E4B1B6A5D4A43F0C2
:103DA000010313620BE05B4B1B6A5A4A23F00103C9
:103DB0001362584B1B6A574A23F0040313627B6853
:103DC000DB68002B15D0FEF717F938610AE0FEF723
:103DD00013F902463B69D31A41F28832934201D962
:103DE0000323B1E04B4B1B6A03F00203002BEED020
:103DF00014E0FEF701F938610AE0FEF7FDF802462B
:103E00003B69D31A41F28832934201D903239BE0E4
:103E1000404B1B6A03F00203002BEED1FB7D012B0C
:103E200005D13C4BDB693B4A23F08053D3617B686F
:103E3000DB69002B00F08780364B5B6803F00C03D6
:103E4000082B61D07B68DB69022B46D1334B002203
:103E50001A60FEF7D1F8386108E0FEF7CDF80246A7
:103E60003B69D31A022B01D903236DE0294B1B6850
:103E700003F00073002BF0D17B681B6AB3F5803F21
:103E800008D1244B5B6823F400327B689B6821498E
:103E900013434B601F4B5B6823F474127B68196AF1
:103EA0007B685B6A0B431B4913434B601B4B01222E
:103EB0001A60FEF7A1F8386108E0FEF79DF80246A7
:103EC0003B69D31A022B01D903233DE0114B1B6838
:103ED00003F00073002BF0D035E0104B00221A6085
:103EE000FEF78AF8386108E0FEF786F802463B697B
:103EF000D31A022B01D9032326E0064B1B6803F0DB
:103F00000073002BF0D11EE07B68DB69012B07D129
:103F1000012319E00010024000700040600042429E
:103F20000B4B5B68FB60FB6803F480327B681B6AA9
:103F30009A4206D1FB6803F470127B685B6A9A426E
:103F400001D0012300E0002318461837BD4680BD8C
:103F50000010024080B584B000AF786039607B68A3
:103F6000002B01D10123D0E06A4B1B6803F007034B
:103F70003A689A4210D9674B1B6823F007026549DB
:103F80003B6813430B60634B1B6803F007033A68FD
:103F90009A4201D00123B8E07B681B6803F002035A
:103FA000002B20D07B681B6803F00403002B05D096
:103FB000594B5B68584A43F4E06353607B681B6865
:103FC00003F00803002B05D0534B5B68524A43F4BF
:103FD00060535360504B5B6823F0F0027B689B6832
:103FE0004D4913434B607B681B6803F00103002BB2
:103FF00040D07B685B68012B07D1474B1B6803F4FB
:104000000033002B15D101237FE07B685B68022B16
:1040100007D1414B1B6803F00073002B09D101232A
:1040200073E03D4B1B6803F00203002B01D1012319
:104030006BE0394B5B6823F003027B685B683649B1
:1040400013434B60FDF7D8FFF8600AE0FDF7D4FF9B
:104050000246FB68D31A41F28832934201D9032306
:1040600053E02D4B5B6803F00C027B685B689B00A0
:104070009A42EBD1274B1B6803F007033A689A4238
:1040800010D2244B1B6823F0070222493B681343DC
:104090000B60204B1B6803F007033A689A4201D07B
:1040A000012332E07B681B6803F00403002B08D077
:1040B000194B5B6823F4E0627B68DB6816491343A5
:1040C0004B607B681B6803F00803002B09D0124B80
:1040D0005B6823F460527B681B69DB000E49134365
:1040E0004B6000F021F802460B4B5B681B0903F0A4
:1040F0000F030A49CB5C22FA03F3094A1360094B08
:104100001B681846FDF736FF002318461037BD46DA
:1041100080BD00BF0020024000100240B4500008E3
:10412000240000202800002080B487B000AF0023C6
:10413000FB600023BB6000237B6100237B600023C6
:104140003B611E4B5B68FB60FB6803F00C03042BB8
:1041500002D0082B03D027E0194B3B6127E0FB6816
:104160009B0C03F00F03174AD35C7B60FB6803F4DE
:104170008033002B10D0114B5B685B0C03F0010304
:10418000114AD35CBB607B680D4A03FB02F2BB683B
:10419000B2FBF3F37B6104E07B680C4A02FB03F3A0
:1041A0007B617B693B6102E0054B3B6100BF3B6982
:1041B00018461C37BD4680BC704700BF0010024047
:1041C00000127A00CC500008DC50000800093D00C5
:1041D00080B400AF024B1B681846BD4680BC7047D8
:1041E0002400002080B500AFFFF7F2FF0246054B28
:1041F0005B681B0A03F007030349CB5C22FA03F355
:10420000184680BD00100240C450000880B500AFC1
:10421000FFF7DEFF0246054B5B68DB0A03F007038E
:104220000349CB5C22FA03F3184680BD001002401C
:10423000C450000880B485B000AF78600A4B1B689A
:104240000A4AA2FB03235B0A7A6802FB03F3FB60C2
:1042500000BFFB685A1EFA60002BF9D100BF00BFF7
:104260001437BD4680BC704724000020D34D621037
:1042700080B582B000AF78607B68002B01D101234C
:1042800042E07B6893F84130DBB2002B06D17B68BB
:10429000002283F840207868FDF75CFB7B682422CD
:1042A00083F841207B681B68DA687B681B6822F40E
:1042B0000052DA60786800F071F97B681B681A694F
:1042C0007B681B6822F490421A617B681B685A69FC
:1042D0007B681B6822F02A025A617B681B68DA68D7
:1042E0007B681B6842F40052DA607B6800225A64E3
:1042F0007B68202283F841207B68202283F84220BB
:104300007B6800225A63002318460837BD4680BDEB
:1043100080B58AB002AFF860B9603B601346FB809D
:1043200000237B61FB6893F84130DBB2202B75D111
:10433000BB68002B02D0FB88002B01D101236EE06B
:10434000FB6800225A64FB68212283F84120FDF7B4
:1043500053FE7861FB68FA889A84FB68FA88DA84ED
:10436000FB689B68B3F5805F08D1FB681B69002B75
:1043700004D10023FB61BB68BB6103E0BB68FB6148
:104380000023BB612EE03B6800937B690022802103
:10439000F86800F048F80346002B05D0FB6820229F
:1043A00083F8412003233AE0FB69002B0BD1BB6962
:1043B0001B881A46FB681B68C2F308025A60BB6977
:1043C0000233BB6107E0FB691A78FB681B685A601F
:1043D000FB690133FB61FB68DB8C9BB2013B9AB24A
:1043E000FB68DA84FB68DB8C9BB2002BCBD13B688B
:1043F00000937B6900224021F86800F014F803461E
:10440000002B05D0FB68202283F84120032306E01F
:10441000FB68202283F84120002300E00223184695
:104420002037BD4680BD80B586B000AFF860B9606A
:104430003B601346FB713BE03B6AB3F1FF3F37D073
:10444000FDF7DAFD02463B68D31A3A6A9A4202D374
:104450003B6A002B01D103233AE0FB681B68DB6851
:1044600003F00403002B23D0BB68802B20D0BB6853
:10447000402B1DD0FB681B681B6803F00803082B4A
:1044800016D100237B61FB681B681B687B61FB689E
:104490001B685B687B617B69F86800F01DF8FB684E
:1044A00008225A64FB68002283F8402001230FE0B1
:1044B000FB681B681A68BB681340BA689A420CBF55
:1044C00001230023DBB21A46FB799A42B4D00023C1
:1044D00018461837BD4680BD80B495B000AF7860EF
:1044E0007B681B680C337B637B6B53E8003F3B634B
:1044F0003B6B23F49073FB647B681B680C33FA6C92
:104500003A64FB63F96B3A6C41E80023BB63BB6B15
:10451000002BE5D17B681B6814333B623B6A53E890
:10452000003FFB61FB6923F00103BB647B681B68F0
:104530001433BA6CFA62BB62B96AFA6A41E80023C2
:104540007B627B6A002BE5D17B681B6B012B19D149
:104550007B681B680C33FB60FB6853E8003FBB6063
:10456000BB6823F010037B647B681B680C337A6C98
:10457000BA617B617969BA6941E800233B613B69B3
:10458000002BE5D17B68202283F842207B68002243
:104590001A6300BF5437BD4680BC704780B584B0F5
:1045A00000AF78607B681B681B6923F440517B680F
:1045B000DA687B681B680A431A617B689A687B68C3
:1045C0001B691A437B685B691343BB607B681B688C
:1045D000DB6823F4B05323F00C037A681268B968DF
:1045E0000B43D3607B681B685B6923F440717B6875
:1045F0009A697B681B680A435A617B681B682C4A6E
:10460000934203D1FFF702FEF86002E0FFF7EAFDF4
:10461000F860FA6813469B0013449A001A447B68BA
:104620005B689B00B2FBF3F3224AA2FB03235B0906
:104630001901FA6813469B0013449A001A447B68D8
:104640005B689B00B2FBF3F21A4BA3FB02035B090E
:10465000642000FB03F3D31A1B013233154AA2FB7B
:1046600003235B0903F0F0031944FA6813469B0027
:1046700013449A001A447B685B689B00B2FBF3F218
:104680000C4BA3FB02035B09642000FB03F3D31A6A
:104690001B013233074AA2FB03235B0903F00F021D
:1046A0007B681B680A449A6000BF1037BD4680BD16
:1046B000003801401F85EB510EB46FF0004100B58A
:1046C0009CB01DAB029006900791049108480949DF
:1046D00053F8042B0591006802A9019300F0A0F99A
:1046E0000022029B1A701CB05DF804EB03B0704707
:1046F000300000200802FFFF03460244934200D12D
:10470000704703F8011BF9E7014B1868704700BFB9
:104710003000002070B500260C4D0D4C641BA41019
:10472000A64209D100F078FC00260A4D0A4C641B11
:10473000A410A64205D170BD55F8043B9847013638
:10474000EEE755F8043B98470136F2E71C510008A4
:104750001C5100081C510008205100087047704788
:104760000A44914200F1FF3300D1704710B511F8AF
:10477000014B914203F8014FF9D110BD38B5054600
:10478000002940D051F8043C0C1F002BB8BFE4189E
:1047900000F0DEF81C4A136833B9636014602846E1
:1047A000BDE8384000F0DAB8A34208D920682118E3
:1047B0008B4201BF19685B6809182160EDE71A4652
:1047C0005B680BB1A342FAD911685018A0420BD113
:1047D00020680144501883421160E0D118685B687A
:1047E000084410605360DAE702D90C232B60D6E747
:1047F000206821188B4201BF19685B680918216085
:1048000063605460CBE738BD7403002070B50F4E71
:104810000C463168054611B900F0AAFB306021460C
:10482000284600F0A5FB431C03D14FF0FF3420467F
:1048300070BDC41C24F00304A042F8D0211A2846FD
:1048400000F096FB0130F2D1EFE700BF70030020CB
:104850002DE9F843CD1C25F0030508350C2D38BF94
:104860000C25002D064601DBA94204D90C23336038
:104870000020BDE8F883DFF8D48000F069F8D8F8AC
:1048800000301C4644BB29463046FFF7BFFF431C9F
:10489000044658D1D8F800402746002F43D1002CB9
:1048A0004BD023683946304604EB030900F060FB27
:1048B000814542D1216830466D1A2946FFF7A6FF8F
:1048C00001303AD023682B442360D8F800305A686E
:1048D00062BBC8F800700FE02268521B20D40B2A7C
:1048E00017D96119A342256018BF5960636808BFD2
:1048F000C8F8001062514B60304600F02FF804F108
:104900000B00231D20F00700C21A1CBF1B1AA35066
:10491000AFE76268A3420CBFC8F800205A60EBE71B
:1049200023466468AEE73C467F68B6E71A465B6894
:10493000A342FBD100235360DEE70C2330463360F3
:1049400000F00CF894E70560D6E700BF7403002080
:104950000148FFF703BF00BF6C0300200148FFF7C9
:10496000FEBE00BF6C0300202DE9F0471F468E6895
:104970008246BE420C4690460B682DD8B1F90C20F9
:1049800012F4906F26D06569096905EB4505A3EB24
:10499000010905EBD5757B1C4B446D109D4238BF5A
:1049A0001D46530527D52946FFF752FF064660B33B
:1049B0004A462169FFF7D4FEA38923F4906343F0AC
:1049C0008003A38126614E4426603E466561A5EBC7
:1049D0000905A560BE4200D93E46324641462068E0
:1049E00000F0ACFA0020A3689B1BA360236833444B
:1049F0002360BDE8F0872A4600F0D8FA0646002872
:104A0000E0D150462169FFF7B9FE0C23CAF8003007
:104A1000A3894FF0FF3043F04003A381E9E7000092
:104A20002DE9F04F98468B8907461B060D46144624
:104A30009DB010D50B6973B94021FFF709FF2860BD
:104A4000286130B90C233B604FF0FF301DB0BDE84A
:104A5000F08F40236B610023099320238DF82930C8
:104A600030234FF00109CDF80C80DFF898818DF8E4
:104A70002A3023469A4613F8012B0AB1252AF9D188
:104A8000BAEB040B0BD05B46224629463846FFF7AB
:104A90006BFF013000F0A780099A5A4409929AF8F6
:104AA0000030002B00F09F8000234FF0FF32CDE953
:104AB00005230AF1010A049307938DF853301A93E2
:104AC0005446052214F8011B4E4800F061FA049A7E
:104AD000D8B9D00644BF20238DF85330110744BF06
:104AE0002B238DF853309AF800302A2B15D05446DA
:104AF00000204FF00A0C079A214611F8013B303B89
:104B0000092B4BD9B0B1079214E0A0EB080309FAC6
:104B100003F31343A2460493D2E7039B191D1B68BA
:104B20000391002BBBBF5B4242F002020793079345
:104B3000B8BF049223782E2B0AD163782A2B32D166
:104B4000039B02341A1D1B68039243EAE373059327
:104B5000DFF8B4A003225046217800F019FA38B1EA
:104B60004022049BA0EB0A008240134301340493CB
:104B700014F8011B062225488DF8281000F008FAC9
:104B8000002836D0224B1BBB039B073323F00703BF
:104B900008330393099B334409936AE70C460120C9
:104BA0000CFB0232A8E700234FF00A0C194601342F
:104BB0000593204610F8012B303A092A03D9002B1F
:104BC000C6D00591C4E7044601230CFB0121F0E7A0
:104BD00003AB00932A4638460E4B04A9AFF300807E
:104BE000421C0646D6D1AB895B063FF52DAF09982E
:104BF0002CE703AB00932A463846064B04A900F085
:104C00007DF8EDE7DE500008E4500008E8500008A9
:104C100000000000694900082DE9F0471646984653
:104C20008A680B6907469342B8BF1346336091F810
:104C300043200C46DDF820900AB10133336023682D
:104C4000990642BF336802333360256815F00605C4
:104C500006D104F1190AE36832689B1AAB422BDCD7
:104C600094F843302268003B18BF0123920630D4E9
:104C70004146384604F14302C847013023D0236837
:104C8000226903F00603042B14BF002533684FF09C
:104C9000000608BFE56804F11A0408BFED1A54F8CD
:104CA000123C08BF25EAE5759342C4BF9B1AED1874
:104CB000B5421AD1002008E0012352464146384649
:104CC000C847013003D14FF0FF30BDE8F087013510
:104CD000C1E73020E11881F843005A1C94F84510D0
:104CE0002244023382F84310C2E7012322464146A0
:104CF0003846C8470130E6D00136D9E72DE9FF47ED
:104D00000F7E9146782F80460C469A460C9E01F104
:104D1000430207D8622F0AD8002F00F0D380582F03
:104D200000F0BA8004F1420684F842703AE0A7F13C
:104D30006303152BF6D801A151F823F0954D000817
:104D4000A94D0008254D0008254D0008254D0008F7
:104D5000254D0008A94D0008254D0008254D0008E7
:104D6000254D0008254D0008AB4E0008D34D000826
:104D7000654E0008254D0008254D0008CD4E000861
:104D8000254D0008D34D0008254D0008254D00088D
:104D90006D4E000833681A1D1B68326004F142062C
:104DA00084F8423001239EE033682068191D316089
:104DB000060601D51D6803E04506FBD5B3F9005092
:104DC000002D03DA2D236D4284F843300A2359481D
:104DD00011E021683368080653F8045B02D44906E1
:104DE00048BFADB26F2F336014BF0A230823514868
:104DF000002184F843106668002EA8BF2168A660D1
:104E0000A4BF21F0040121600DB9002E4BD016463D
:104E1000B5FBF3F103FB1157C75D06F8017D2F4683
:104E2000BB420D46F4D9082B0BD12368DF0708D508
:104E3000236961689942DEBF302306F8013C06F120
:104E4000FF36921B22614B4621464046CDF800A01A
:104E500003AAFFF7E1FE01304AD14FF0FF3004B062
:104E6000BDE8F087236843F02003236078273248A9
:104E700084F84570236831681F0651F8045B02D43A
:104E80005F0648BFADB23160D90744BF43F020038D
:104E900023601DB11023ABE72648E9E7236823F020
:104EA00020032360F6E71646BDE733682568181D22
:104EB000616930602E061B6801D5196002E0680642
:104EC000FBD51980002316462361BCE73368002117
:104ED0001A1D32601E686268304600F059F808B149
:104EE000801B606063682361002384F84330AAE775
:104EF0003246494640462369D0470130ADD0236849
:104F00009B0713D4E068039B9842B8BF1846A6E7F6
:104F10000123324649464046D04701309DD00135F5
:104F2000E36803995B1AAB42F2DCEBE7002504F17E
:104F30001906F5E7EF50000800510008884210B547
:104F400001EB020402D98442234607D8431EA14242
:104F500008D011F8012B03F8012FF8E701460244AD
:104F60008A4200D110BD13F8014D02F8014DF7E758
:104F700038B50023054D044608462B60FCF762FD5A
:104F8000431C02D12B6803B1236038BD68030020A5
:104F9000034610B5C9B202449342184601D100201D
:104FA00003E0047801338C42F6D110BD2DE9F041C5
:104FB000804615460C4621B91146BDE8F041FFF781
:104FC00047BC2AB9FFF7DAFB00242046BDE8F08190
:104FD00000F01AF88542064602D8B5EB500FF4D817
:104FE00029464046FFF734FC07460028ECD0B5427E
:104FF0002A46214628BF3246FFF7B2FB21464046EB
:10500000FFF7BCFB3C46E0E751F8043C181F002BBF
:10501000BCBF0B58C0187047F8B500BFF8BC08BC3F
:105020009E467047F8B500BFF8BC08BC9E46704766
:1050300043454543000000000A0D257520257500F5
:105040000000000102000208000810010100000039
:1050500000FF000F0000000000200B0000020A21EA
:1050600000000500000000C8000038FF0100080033
:105070000001CC0F01F10D0168008008B8000000AC
:10508000000F8900000000000000010F0D0E0E004F
:105090000002C7FF9B00000001000000FFFFFF05AA
:1050A000020401070300FFFF090DFFFFFFFF0A06CF
:1050B000FFFF0B0C000000000000000001020304D1
:1050C00006070809000000000102030402030405AA
:1050D000060708090A0B0C0D0E0F10100102232DF4
:1050E000302B2000686C4C006566674546470030F1
:1050F000313233343536373839414243444546003E
:10510000303132333435363738396162636465663D
:04511000000000009B
:085114003CB0FF7F0100000028
:04511C003501000851
:045120001101000871
:10512400305000080010014000800000000C0140D5
:10513400000100000010014000400000000C01408C
:105144000002000000127A001000000001000000BC
:1051540034000020000000003002002098020020EB
:105164000003002000000000000000000000000018
:10517400000000000000000000000000000000002B
:10518400000000000000000000000000000000001B
:10519400000000000000000000000000000000000B
:0400000508001EFDD4
:00000001FF
